{
  "contractName": "Bazaar",
  "abi": [
    {
      "constant": true,
      "inputs": [
        {
          "name": "",
          "type": "address"
        }
      ],
      "name": "storeOwners",
      "outputs": [
        {
          "name": "",
          "type": "bool"
        }
      ],
      "payable": false,
      "stateMutability": "view",
      "type": "function",
      "signature": "0x057cc2a1"
    },
    {
      "constant": true,
      "inputs": [
        {
          "name": "",
          "type": "address"
        }
      ],
      "name": "admins",
      "outputs": [
        {
          "name": "",
          "type": "bool"
        }
      ],
      "payable": false,
      "stateMutability": "view",
      "type": "function",
      "signature": "0x429b62e5"
    },
    {
      "constant": true,
      "inputs": [
        {
          "name": "",
          "type": "address"
        },
        {
          "name": "",
          "type": "uint256"
        }
      ],
      "name": "storeAddressesByOwner",
      "outputs": [
        {
          "name": "",
          "type": "address"
        }
      ],
      "payable": false,
      "stateMutability": "view",
      "type": "function",
      "signature": "0x74d9037b"
    },
    {
      "constant": true,
      "inputs": [
        {
          "name": "",
          "type": "uint256"
        }
      ],
      "name": "storeOwnerRequests",
      "outputs": [
        {
          "name": "",
          "type": "address"
        }
      ],
      "payable": false,
      "stateMutability": "view",
      "type": "function",
      "signature": "0x96549885"
    },
    {
      "inputs": [],
      "payable": false,
      "stateMutability": "nonpayable",
      "type": "constructor",
      "signature": "constructor"
    },
    {
      "payable": true,
      "stateMutability": "payable",
      "type": "fallback"
    },
    {
      "anonymous": false,
      "inputs": [
        {
          "indexed": false,
          "name": "storeOwnerRequestAddress",
          "type": "address"
        }
      ],
      "name": "StoreOwnerRequestSent",
      "type": "event",
      "signature": "0xe8d8416cffa981f4862d25c6d4fbf348eeb69b890f5c2c4028ad5a04ade78b70"
    },
    {
      "anonymous": false,
      "inputs": [
        {
          "indexed": false,
          "name": "storeOwnerAddress",
          "type": "address"
        }
      ],
      "name": "StoreOwnerAdded",
      "type": "event",
      "signature": "0xe095b54135d91dfdb849d8f2a1232ed69da67f78cfd33a34a834084d8d037e9a"
    },
    {
      "anonymous": false,
      "inputs": [
        {
          "indexed": false,
          "name": "",
          "type": "address[]"
        }
      ],
      "name": "StoreOwnerRequestsUpdated",
      "type": "event",
      "signature": "0x325c53f9918922c50e1eb4c0bc4af2d43ff25ce7f784273ef65bd7cd3113edde"
    },
    {
      "anonymous": false,
      "inputs": [
        {
          "indexed": false,
          "name": "owner",
          "type": "address"
        },
        {
          "indexed": false,
          "name": "store",
          "type": "address"
        }
      ],
      "name": "NewStoreCreated",
      "type": "event",
      "signature": "0xdf610879fac4a03d912c46475080cd290bbc0bac06f066f649dc9ccd13bb5d72"
    },
    {
      "constant": true,
      "inputs": [],
      "name": "getStoreAddressesByOwner",
      "outputs": [
        {
          "name": "",
          "type": "address[]"
        }
      ],
      "payable": false,
      "stateMutability": "view",
      "type": "function",
      "signature": "0xb9e17a73"
    },
    {
      "constant": false,
      "inputs": [
        {
          "name": "name",
          "type": "string"
        },
        {
          "name": "description",
          "type": "string"
        }
      ],
      "name": "createNewStore",
      "outputs": [],
      "payable": false,
      "stateMutability": "nonpayable",
      "type": "function",
      "signature": "0x0a25cced"
    },
    {
      "constant": true,
      "inputs": [],
      "name": "getUserType",
      "outputs": [
        {
          "name": "",
          "type": "string"
        }
      ],
      "payable": false,
      "stateMutability": "view",
      "type": "function",
      "signature": "0x41990077"
    },
    {
      "constant": false,
      "inputs": [],
      "name": "addStoreOwnerRequest",
      "outputs": [],
      "payable": false,
      "stateMutability": "nonpayable",
      "type": "function",
      "signature": "0xd66e92c2"
    },
    {
      "constant": false,
      "inputs": [
        {
          "name": "index",
          "type": "uint256"
        },
        {
          "name": "storeOwner",
          "type": "address"
        }
      ],
      "name": "addStoreOwner",
      "outputs": [],
      "payable": false,
      "stateMutability": "nonpayable",
      "type": "function",
      "signature": "0x24b135d3"
    },
    {
      "constant": true,
      "inputs": [],
      "name": "getStoreOwnerRequests",
      "outputs": [
        {
          "name": "",
          "type": "address[]"
        }
      ],
      "payable": false,
      "stateMutability": "view",
      "type": "function",
      "signature": "0xe5348b30"
    },
    {
      "constant": false,
      "inputs": [
        {
          "name": "newAdmin",
          "type": "address"
        }
      ],
      "name": "addAdmin",
      "outputs": [],
      "payable": false,
      "stateMutability": "nonpayable",
      "type": "function",
      "signature": "0x70480275"
    },
    {
      "constant": false,
      "inputs": [],
      "name": "withdraw",
      "outputs": [],
      "payable": true,
      "stateMutability": "payable",
      "type": "function",
      "signature": "0x3ccfd60b"
    }
  ],
  "bytecode": "0x608060405234801561001057600080fd5b5060016000803373ffffffffffffffffffffffffffffffffffffffff1673ffffffffffffffffffffffffffffffffffffffff16815260200190815260200160002060006101000a81548160ff021916908315150217905550612826806100776000396000f3fe6080604052600436106100ba576000357c0100000000000000000000000000000000000000000000000000000000900463ffffffff168063057cc2a1146100bc5780630a25cced1461012557806324b135d3146102845780633ccfd60b146102df57806341990077146102e9578063429b62e51461037957806370480275146103e257806374d9037b1461043357806396549885146104ce578063b9e17a7314610549578063d66e92c2146105b5578063e5348b30146105cc575b005b3480156100c857600080fd5b5061010b600480360360208110156100df57600080fd5b81019080803573ffffffffffffffffffffffffffffffffffffffff169060200190929190505050610638565b604051808215151515815260200191505060405180910390f35b34801561013157600080fd5b506102826004803603604081101561014857600080fd5b810190808035906020019064010000000081111561016557600080fd5b82018360208201111561017757600080fd5b8035906020019184600183028401116401000000008311171561019957600080fd5b91908080601f016020809104026020016040519081016040528093929190818152602001838380828437600081840152601f19601f820116905080830192505050505050509192919290803590602001906401000000008111156101fc57600080fd5b82018360208201111561020e57600080fd5b8035906020019184600183028401116401000000008311171561023057600080fd5b91908080601f016020809104026020016040519081016040528093929190818152602001838380828437600081840152601f19601f820116905080830192505050505050509192919290505050610658565b005b34801561029057600080fd5b506102dd600480360360408110156102a757600080fd5b8101908080359060200190929190803573ffffffffffffffffffffffffffffffffffffffff169060200190929190505050610930565b005b6102e7610ad2565b005b3480156102f557600080fd5b506102fe610b90565b6040518080602001828103825283818151815260200191508051906020019080838360005b8381101561033e578082015181840152602081019050610323565b50505050905090810190601f16801561036b5780820380516001836020036101000a031916815260200191505b509250505060405180910390f35b34801561038557600080fd5b506103c86004803603602081101561039c57600080fd5b81019080803573ffffffffffffffffffffffffffffffffffffffff169060200190929190505050610cf9565b604051808215151515815260200191505060405180910390f35b3480156103ee57600080fd5b506104316004803603602081101561040557600080fd5b81019080803573ffffffffffffffffffffffffffffffffffffffff169060200190929190505050610d19565b005b34801561043f57600080fd5b5061048c6004803603604081101561045657600080fd5b81019080803573ffffffffffffffffffffffffffffffffffffffff16906020019092919080359060200190929190505050610dd1565b604051808273ffffffffffffffffffffffffffffffffffffffff1673ffffffffffffffffffffffffffffffffffffffff16815260200191505060405180910390f35b3480156104da57600080fd5b50610507600480360360208110156104f157600080fd5b8101908080359060200190929190505050610e1e565b604051808273ffffffffffffffffffffffffffffffffffffffff1673ffffffffffffffffffffffffffffffffffffffff16815260200191505060405180910390f35b34801561055557600080fd5b5061055e610e5c565b6040518080602001828103825283818151815260200191508051906020019060200280838360005b838110156105a1578082015181840152602081019050610586565b505050509050019250505060405180910390f35b3480156105c157600080fd5b506105ca610f27565b005b3480156105d857600080fd5b506105e1610ff2565b6040518080602001828103825283818151815260200191508051906020019060200280838360005b83811015610624578082015181840152602081019050610609565b505050509050019250505060405180910390f35b60016020528060005260406000206000915054906101000a900460ff1681565b60011515600160003373ffffffffffffffffffffffffffffffffffffffff1673ffffffffffffffffffffffffffffffffffffffff16815260200190815260200160002060009054906101000a900460ff1615151415156106b757600080fd5b60003383836106c4611080565b808473ffffffffffffffffffffffffffffffffffffffff1673ffffffffffffffffffffffffffffffffffffffff1681526020018060200180602001838103835285818151815260200191508051906020019080838360005b8381101561073757808201518184015260208101905061071c565b50505050905090810190601f1680156107645780820380516001836020036101000a031916815260200191505b50838103825284818151815260200191508051906020019080838360005b8381101561079d578082015181840152602081019050610782565b50505050905090810190601f1680156107ca5780820380516001836020036101000a031916815260200191505b5095505050505050604051809103906000f0801580156107ee573d6000803e3d6000fd5b509050600360003373ffffffffffffffffffffffffffffffffffffffff1673ffffffffffffffffffffffffffffffffffffffff1681526020019081526020016000208190806001815401808255809150509060018203906000526020600020016000909192909190916101000a81548173ffffffffffffffffffffffffffffffffffffffff021916908373ffffffffffffffffffffffffffffffffffffffff160217905550507fdf610879fac4a03d912c46475080cd290bbc0bac06f066f649dc9ccd13bb5d723382604051808373ffffffffffffffffffffffffffffffffffffffff1673ffffffffffffffffffffffffffffffffffffffff1681526020018273ffffffffffffffffffffffffffffffffffffffff1673ffffffffffffffffffffffffffffffffffffffff1681526020019250505060405180910390a1505050565b600115156000803373ffffffffffffffffffffffffffffffffffffffff1673ffffffffffffffffffffffffffffffffffffffff16815260200190815260200160002060009054906101000a900460ff16151514151561098e57600080fd5b816002805490501115156109a157600080fd5b8073ffffffffffffffffffffffffffffffffffffffff166002838154811015156109c757fe5b9060005260206000200160009054906101000a900473ffffffffffffffffffffffffffffffffffffffff1673ffffffffffffffffffffffffffffffffffffffff16141515610a1457600080fd5b60018060008373ffffffffffffffffffffffffffffffffffffffff1673ffffffffffffffffffffffffffffffffffffffff16815260200190815260200160002060006101000a81548160ff0219169083151502179055507fe095b54135d91dfdb849d8f2a1232ed69da67f78cfd33a34a834084d8d037e9a81604051808273ffffffffffffffffffffffffffffffffffffffff1673ffffffffffffffffffffffffffffffffffffffff16815260200191505060405180910390a15050565b600115156000803373ffffffffffffffffffffffffffffffffffffffff1673ffffffffffffffffffffffffffffffffffffffff16815260200190815260200160002060009054906101000a900460ff161515141515610b3057600080fd5b3373ffffffffffffffffffffffffffffffffffffffff166108fc3073ffffffffffffffffffffffffffffffffffffffff16319081150290604051600060405180830381858888f19350505050158015610b8d573d6000803e3d6000fd5b50565b6060600115156000803373ffffffffffffffffffffffffffffffffffffffff1673ffffffffffffffffffffffffffffffffffffffff16815260200190815260200160002060009054906101000a900460ff1615151415610c27576040805190810160405280600581526020017f61646d696e0000000000000000000000000000000000000000000000000000008152509050610cf6565b60011515600160003373ffffffffffffffffffffffffffffffffffffffff1673ffffffffffffffffffffffffffffffffffffffff16815260200190815260200160002060009054906101000a900460ff1615151415610cbd576040805190810160405280600a81526020017f73746f72654f776e6572000000000000000000000000000000000000000000008152509050610cf6565b6040805190810160405280600781526020017f73686f707065720000000000000000000000000000000000000000000000000081525090505b90565b60006020528060005260406000206000915054906101000a900460ff1681565b600115156000803373ffffffffffffffffffffffffffffffffffffffff1673ffffffffffffffffffffffffffffffffffffffff16815260200190815260200160002060009054906101000a900460ff161515141515610d7757600080fd5b60016000808373ffffffffffffffffffffffffffffffffffffffff1673ffffffffffffffffffffffffffffffffffffffff16815260200190815260200160002060006101000a81548160ff02191690831515021790555050565b600360205281600052604060002081815481101515610dec57fe5b906000526020600020016000915091509054906101000a900473ffffffffffffffffffffffffffffffffffffffff1681565b600281815481101515610e2d57fe5b906000526020600020016000915054906101000a900473ffffffffffffffffffffffffffffffffffffffff1681565b6060600360003373ffffffffffffffffffffffffffffffffffffffff1673ffffffffffffffffffffffffffffffffffffffff168152602001908152602001600020805480602002602001604051908101604052809291908181526020018280548015610f1d57602002820191906000526020600020905b8160009054906101000a900473ffffffffffffffffffffffffffffffffffffffff1673ffffffffffffffffffffffffffffffffffffffff1681526020019060010190808311610ed3575b5050505050905090565b60023390806001815401808255809150509060018203906000526020600020016000909192909190916101000a81548173ffffffffffffffffffffffffffffffffffffffff021916908373ffffffffffffffffffffffffffffffffffffffff160217905550507fe8d8416cffa981f4862d25c6d4fbf348eeb69b890f5c2c4028ad5a04ade78b7033604051808273ffffffffffffffffffffffffffffffffffffffff1673ffffffffffffffffffffffffffffffffffffffff16815260200191505060405180910390a1565b6060600280548060200260200160405190810160405280929190818152602001828054801561107657602002820191906000526020600020905b8160009054906101000a900473ffffffffffffffffffffffffffffffffffffffff1673ffffffffffffffffffffffffffffffffffffffff168152602001906001019080831161102c575b5050505050905090565b60405161176980620010928339019056fe60806040526000600560006101000a81548160ff0219169083151502179055503480156200002c57600080fd5b506040516200176938038062001769833981018060405260608110156200005257600080fd5b810190808051906020019092919080516401000000008111156200007557600080fd5b828101905060208101848111156200008c57600080fd5b8151856001820283011164010000000082111715620000aa57600080fd5b50509291906020018051640100000000811115620000c757600080fd5b82810190506020810184811115620000de57600080fd5b8151856001820283011164010000000082111715620000fc57600080fd5b50509291905050508160208151111515156200011757600080fd5b8160208151111515156200012a57600080fd5b846000806101000a81548173ffffffffffffffffffffffffffffffffffffffff021916908373ffffffffffffffffffffffffffffffffffffffff160217905550836001908051906020019062000182929190620001af565b5082600290805190602001906200019b929190620001af565b50600060048190555050505050506200025e565b828054600181600116156101000203166002900490600052602060002090601f016020900481019282601f10620001f257805160ff191683800117855562000223565b8280016001018555821562000223579182015b828111156200022257825182559160200191906001019062000205565b5b50905062000232919062000236565b5090565b6200025b91905b80821115620002575760008160009055506001016200023d565b5090565b90565b6114fb806200026e6000396000f3fe6080604052600436106100af576000357c0100000000000000000000000000000000000000000000000000000000900463ffffffff16806306fdde03146100b15780630bc9b010146101415780631385d24c146101705780633ccfd60b14610187578063637fd295146101915780637284e416146102fa5780638da5cb5b1461038a57806392720ad4146103e1578063bfb231d21461040c578063e067569814610541578063e90b883614610579575b005b3480156100bd57600080fd5b506100c66105be565b6040518080602001828103825283818151815260200191508051906020019080838360005b838110156101065780820151818401526020810190506100eb565b50505050905090810190601f1680156101335780820380516001836020036101000a031916815260200191505b509250505060405180910390f35b34801561014d57600080fd5b5061015661065c565b604051808215151515815260200191505060405180910390f35b34801561017c57600080fd5b5061018561066f565b005b61018f6107cf565b005b34801561019d57600080fd5b506102f8600480360360608110156101b457600080fd5b81019080803590602001906401000000008111156101d157600080fd5b8201836020820111156101e357600080fd5b8035906020019184600183028401116401000000008311171561020557600080fd5b91908080601f016020809104026020016040519081016040528093929190818152602001838380828437600081840152601f19601f8201169050808301925050505050505091929192908035906020019064010000000081111561026857600080fd5b82018360208201111561027a57600080fd5b8035906020019184600183028401116401000000008311171561029c57600080fd5b91908080601f016020809104026020016040519081016040528093929190818152602001838380828437600081840152601f19601f8201169050808301925050505050505091929192908035906020019092919050505061093a565b005b34801561030657600080fd5b5061030f610c5a565b6040518080602001828103825283818151815260200191508051906020019080838360005b8381101561034f578082015181840152602081019050610334565b50505050905090810190601f16801561037c5780820380516001836020036101000a031916815260200191505b509250505060405180910390f35b34801561039657600080fd5b5061039f610cf8565b604051808273ffffffffffffffffffffffffffffffffffffffff1673ffffffffffffffffffffffffffffffffffffffff16815260200191505060405180910390f35b3480156103ed57600080fd5b506103f6610d1d565b6040518082815260200191505060405180910390f35b34801561041857600080fd5b506104456004803603602081101561042f57600080fd5b8101908080359060200190929190505050610d23565b604051808681526020018581526020018481526020018060200180602001838103835285818151815260200191508051906020019080838360005b8381101561049b578082015181840152602081019050610480565b50505050905090810190601f1680156104c85780820380516001836020036101000a031916815260200191505b50838103825284818151815260200191508051906020019080838360005b838110156105015780820151818401526020810190506104e6565b50505050905090810190601f16801561052e5780820380516001836020036101000a031916815260200191505b5097505050505050505060405180910390f35b6105776004803603604081101561055757600080fd5b810190808035906020019092919080359060200190929190505050610e89565b005b34801561058557600080fd5b506105bc6004803603604081101561059c57600080fd5b8101908080359060200190929190803590602001909291905050506111a9565b005b60018054600181600116156101000203166002900480601f0160208091040260200160405190810160405280929190818152602001828054600181600116156101000203166002900480156106545780601f1061062957610100808354040283529160200191610654565b820191906000526020600020905b81548152906001019060200180831161063757829003601f168201915b505050505081565b600560009054906101000a900460ff1681565b6000809054906101000a900473ffffffffffffffffffffffffffffffffffffffff1673ffffffffffffffffffffffffffffffffffffffff163373ffffffffffffffffffffffffffffffffffffffff16141515610759576040517f08c379a00000000000000000000000000000000000000000000000000000000081526004018080602001828103825260318152602001807f596f7520646f6e277420686176652074686520617574686f7269747920746f2081526020017f74616b65207468697320616374696f6e2e00000000000000000000000000000081525060400191505060405180910390fd5b600560009054906101000a900460ff1615600560006101000a81548160ff0219169083151502179055507fbbe2df23d8e4c62058ef6f54ed03e99b5f38d650d80f449e5c3dff7eb5fc3c90600560009054906101000a900460ff16604051808215151515815260200191505060405180910390a1565b6000809054906101000a900473ffffffffffffffffffffffffffffffffffffffff1673ffffffffffffffffffffffffffffffffffffffff163373ffffffffffffffffffffffffffffffffffffffff161415156108b9576040517f08c379a00000000000000000000000000000000000000000000000000000000081526004018080602001828103825260318152602001807f596f7520646f6e277420686176652074686520617574686f7269747920746f2081526020017f74616b65207468697320616374696f6e2e00000000000000000000000000000081525060400191505060405180910390fd5b6000809054906101000a900473ffffffffffffffffffffffffffffffffffffffff1673ffffffffffffffffffffffffffffffffffffffff166108fc3073ffffffffffffffffffffffffffffffffffffffff16319081150290604051600060405180830381858888f19350505050158015610937573d6000803e3d6000fd5b50565b6000809054906101000a900473ffffffffffffffffffffffffffffffffffffffff1673ffffffffffffffffffffffffffffffffffffffff163373ffffffffffffffffffffffffffffffffffffffff16141515610a24576040517f08c379a00000000000000000000000000000000000000000000000000000000081526004018080602001828103825260318152602001807f596f7520646f6e277420686176652074686520617574686f7269747920746f2081526020017f74616b65207468697320616374696f6e2e00000000000000000000000000000081525060400191505060405180910390fd5b826020815111151515610a3657600080fd5b826020815111151515610a4857600080fd5b610a506113fa565b60a060405190810160405280610a72600160045461137990919063ffffffff16565b8152602001600081526020018581526020018781526020018681525090508060036000610aab600160045461137990919063ffffffff16565b81526020019081526020016000206000820151816000015560208201518160010155604082015181600201556060820151816003019080519060200190610af392919061142a565b506080820151816004019080519060200190610b1092919061142a565b50905050610b2a600160045461137990919063ffffffff16565b60048190555080600001517faa3282e255682cfa98467c850726096145699c87f58583664c95fbb35673c83e826060015183608001518460400151604051808060200180602001848152602001838103835286818151815260200191508051906020019080838360005b83811015610baf578082015181840152602081019050610b94565b50505050905090810190601f168015610bdc5780820380516001836020036101000a031916815260200191505b50838103825285818151815260200191508051906020019080838360005b83811015610c15578082015181840152602081019050610bfa565b50505050905090810190601f168015610c425780820380516001836020036101000a031916815260200191505b509550505050505060405180910390a2505050505050565b60028054600181600116156101000203166002900480601f016020809104026020016040519081016040528092919081815260200182805460018160011615610100020316600290048015610cf05780601f10610cc557610100808354040283529160200191610cf0565b820191906000526020600020905b815481529060010190602001808311610cd357829003601f168201915b505050505081565b6000809054906101000a900473ffffffffffffffffffffffffffffffffffffffff1681565b60045481565b6003602052806000526040600020600091509050806000015490806001015490806002015490806003018054600181600116156101000203166002900480601f016020809104026020016040519081016040528092919081815260200182805460018160011615610100020316600290048015610de15780601f10610db657610100808354040283529160200191610de1565b820191906000526020600020905b815481529060010190602001808311610dc457829003601f168201915b505050505090806004018054600181600116156101000203166002900480601f016020809104026020016040519081016040528092919081815260200182805460018160011615610100020316600290048015610e7f5780601f10610e5457610100808354040283529160200191610e7f565b820191906000526020600020905b815481529060010190602001808311610e6257829003601f168201915b5050505050905085565b816000610ea18260045461139a90919063ffffffff16565b10151515610f17576040517f08c379a00000000000000000000000000000000000000000000000000000000081526004018080602001828103825260148152602001807f4974656d20646f6573206e6f742065786973742e00000000000000000000000081525060200191505060405180910390fd5b82826000610f4482600360008681526020019081526020016000206001015461139a90919063ffffffff16565b10151515610fba576040517f08c379a00000000000000000000000000000000000000000000000000000000081526004018080602001828103825260198152602001807f4e6f7420656e6f756768207175616e74697479206c6566742e0000000000000081525060200191505060405180910390fd5b8484610fe58160036000858152602001908152602001600020600201546113bc90919063ffffffff16565b341015151561105c576040517f08c379a000000000000000000000000000000000000000000000000000000000815260040180806020018281038252601c8152602001807f496e73756666696369656e742066756e64732070726f76696465642e0000000081525060200191505060405180910390fd5b600560009054906101000a900460ff1615156110ee5761109b86600360008a81526020019081526020016000206001015461139a90919063ffffffff16565b6003600089815260200190815260200160002060010181905550867f7a53680a44b794c8ef9f1d38676e09a22df8a9bae6949d9da9d275b78d8d74d6876040518082815260200191505060405180910390a25b6111178160036000858152602001908152602001600020600201546113bc90919063ffffffff16565b3411156111a0573373ffffffffffffffffffffffffffffffffffffffff166108fc6111736111648460036000888152602001908152602001600020600201546113bc90919063ffffffff16565b3461139a90919063ffffffff16565b9081150290604051600060405180830381858888f1935050505015801561119e573d6000803e3d6000fd5b505b50505050505050565b8160006111c18260045461139a90919063ffffffff16565b10151515611237576040517f08c379a00000000000000000000000000000000000000000000000000000000081526004018080602001828103825260148152602001807f4974656d20646f6573206e6f742065786973742e00000000000000000000000081525060200191505060405180910390fd5b6000809054906101000a900473ffffffffffffffffffffffffffffffffffffffff1673ffffffffffffffffffffffffffffffffffffffff163373ffffffffffffffffffffffffffffffffffffffff16141515611321576040517f08c379a00000000000000000000000000000000000000000000000000000000081526004018080602001828103825260318152602001807f596f7520646f6e277420686176652074686520617574686f7269747920746f2081526020017f74616b65207468697320616374696f6e2e00000000000000000000000000000081525060400191505060405180910390fd5b816003600085815260200190815260200160002060010181905550827f3756033c58fb5f6f661d145ef362ea4fde4824536ac22f80cfa914b72e12e746836040518082815260200191505060405180910390a2505050565b600080828401905083811015151561139057600080fd5b8091505092915050565b60008282111515156113ab57600080fd5b600082840390508091505092915050565b6000808314156113cf57600090506113f4565b600082840290508284828115156113e257fe5b041415156113ef57600080fd5b809150505b92915050565b60a06040519081016040528060008152602001600081526020016000815260200160608152602001606081525090565b828054600181600116156101000203166002900490600052602060002090601f016020900481019282601f1061146b57805160ff1916838001178555611499565b82800160010185558215611499579182015b8281111561149857825182559160200191906001019061147d565b5b5090506114a691906114aa565b5090565b6114cc91905b808211156114c85760008160009055506001016114b0565b5090565b9056fea165627a7a7230582002e50dc0b5e6100e3a21d376ca5b54a549fcfcfd7b5a59bb7dbc231848f3fb560029a165627a7a7230582081a100e7fcfb3308b0b454de0311905672a611f0c0da61634f6f5ad4022bc0d10029",
  "source": "pragma solidity ^0.5.0;\n\nimport './Store.sol';\n\n/**\n * @title Bazaar\n * @dev This contract contains the required functions to manage the operations of the Bazaar(Marketplace).\n */\ncontract Bazaar {\n  mapping (address => bool) public admins;\n  mapping (address => bool) public storeOwners;\n  address[] public storeOwnerRequests;\n  mapping (address => address[]) public storeAddressesByOwner;\n\n  /**\n     * All applicable events.\n     */\n  event StoreOwnerRequestSent(address storeOwnerRequestAddress);\n  event StoreOwnerAdded(address storeOwnerAddress);\n  event StoreOwnerRequestsUpdated(address[]);\n  event NewStoreCreated(address owner, address store);\n\n  /// @dev This modifier helps to revert a function if it is called by any account that is not an admin.\n  modifier onlyAdmin() {\n    require(admins[msg.sender] == true);\n    _;\n  }\n  \n  /// @dev This modifier helps to revert a function if it is called by any account that is not a store owner.\n  modifier onlyStoreOwner() {\n    require(storeOwners[msg.sender] == true);\n    _;\n  }\n  /// @dev The constructor adds the owner to the list of admins.\n  constructor() public {\n    admins[msg.sender] = true;\n  }\n\n  /** @dev This function helps get a list of store contract addresses that the msg.sender is the owner of.\n    * @return The list of store contract addresses.\n    */\n  function getStoreAddressesByOwner() public view returns (address[] memory) {\n    return storeAddressesByOwner[msg.sender];\n  }\n\n  /** @dev This function generates a new store contract with msg.sender as the owner.\n    * @param name is the name of the store.\n    * @param description is the description of the store.\n    */\n  function createNewStore(string memory name, string memory description) public onlyStoreOwner {\n      \n    Store newStore = new Store(msg.sender, name, description);\n    storeAddressesByOwner[msg.sender].push(address(newStore));\n    emit NewStoreCreated(msg.sender, address(newStore));\n  }\n\n  /** @dev This function defines the user category of the msg.sender.\n    * @return A string indicating what type of user msg.sender is.\n    */\n  function getUserType() public view returns (string memory) {\n    if (admins[msg.sender] == true) {\n      return 'admin';\n    }\n    else if (storeOwners[msg.sender] == true) {\n      return 'storeOwner';\n    }\n    else {\n      return 'shopper';\n    }\n  }\n\n  /** @dev This function adds a request for msg.sender to become a store owner (pending admin approval).\n    */\n  function addStoreOwnerRequest() public {\n    storeOwnerRequests.push(msg.sender);\n    emit StoreOwnerRequestSent(msg.sender);\n  }\n\n  /** @dev This function adds a new store owner from the list of requests.\n    * @param index is the index in the list of requests of the approved store owner.\n    * @param storeOwner is the address of the store owner being approved.\n    */\n  function addStoreOwner(uint index, address storeOwner) public onlyAdmin {\n    require(storeOwnerRequests.length > index);\n    require(storeOwnerRequests[index] == storeOwner);\n    storeOwners[storeOwner] = true;\n\n    emit StoreOwnerAdded(storeOwner);\n  }\n\n  /** @dev This function gets all the store owner requests.\n    * @return A list of all the addresses of the open requests.\n    */\n  function getStoreOwnerRequests() public view returns (address[] memory) {\n    return storeOwnerRequests;\n  }\n\n  /** @dev This function adds a new admin to the bazaar.\n    * @param newAdmin is the address of the new admin to add.\n    */\n  function addAdmin(address newAdmin) public onlyAdmin {\n    admins[newAdmin] = true;\n  }\n\n  /** @dev This function allows admins to withdraw any funds sent to the contract.\n    */\n  function withdraw() public payable onlyAdmin {\n    msg.sender.transfer(address(this).balance);\n  }\n\n  /** @dev Default payable function.\n    */\n  function () external payable {}\n}",
  "sourcePath": "/home/naman/Documents/bazaar_final_project/contracts/Bazaar.sol",
  "compiler": {
    "name": "solc",
    "version": "0.5.0+commit.1d4f565a.Emscripten.clang"
  },
  "schemaVersion": "3.0.1",
  "updatedAt": "2019-01-28T06:57:08.968Z",
  "devdoc": {
    "details": "This contract contains the required functions to manage the operations of the Bazaar(Marketplace).",
    "methods": {
      "addAdmin(address)": {
        "details": "This function adds a new admin to the bazaar.",
        "params": {
          "newAdmin": "is the address of the new admin to add."
        }
      },
      "addStoreOwner(uint256,address)": {
        "details": "This function adds a new store owner from the list of requests.",
        "params": {
          "index": "is the index in the list of requests of the approved store owner.",
          "storeOwner": "is the address of the store owner being approved."
        }
      },
      "addStoreOwnerRequest()": {
        "details": "This function adds a request for msg.sender to become a store owner (pending admin approval)."
      },
      "constructor": {
        "details": "The constructor adds the owner to the list of admins."
      },
      "createNewStore(string,string)": {
        "details": "This function generates a new store contract with msg.sender as the owner.",
        "params": {
          "description": "is the description of the store.",
          "name": "is the name of the store."
        }
      },
      "getStoreAddressesByOwner()": {
        "details": "This function helps get a list of store contract addresses that the msg.sender is the owner of.",
        "return": "The list of store contract addresses."
      },
      "getStoreOwnerRequests()": {
        "details": "This function gets all the store owner requests.",
        "return": "A list of all the addresses of the open requests."
      },
      "getUserType()": {
        "details": "This function defines the user category of the msg.sender.",
        "return": "A string indicating what type of user msg.sender is."
      },
      "withdraw()": {
        "details": "This function allows admins to withdraw any funds sent to the contract."
      }
    },
    "title": "Bazaar"
  },
  "userdoc": {
    "methods": {}
  }
}