{
  "contractName": "Store",
  "abi": [
    {
      "constant": true,
      "inputs": [],
      "name": "name",
      "outputs": [
        {
          "name": "",
          "type": "string"
        }
      ],
      "payable": false,
      "stateMutability": "view",
      "type": "function"
    },
    {
      "constant": true,
      "inputs": [],
      "name": "circuitBreak",
      "outputs": [
        {
          "name": "",
          "type": "bool"
        }
      ],
      "payable": false,
      "stateMutability": "view",
      "type": "function"
    },
    {
      "constant": true,
      "inputs": [],
      "name": "description",
      "outputs": [
        {
          "name": "",
          "type": "string"
        }
      ],
      "payable": false,
      "stateMutability": "view",
      "type": "function"
    },
    {
      "constant": true,
      "inputs": [],
      "name": "owner",
      "outputs": [
        {
          "name": "",
          "type": "address"
        }
      ],
      "payable": false,
      "stateMutability": "view",
      "type": "function"
    },
    {
      "constant": true,
      "inputs": [],
      "name": "newestItemSku",
      "outputs": [
        {
          "name": "",
          "type": "uint256"
        }
      ],
      "payable": false,
      "stateMutability": "view",
      "type": "function"
    },
    {
      "constant": true,
      "inputs": [
        {
          "name": "",
          "type": "uint256"
        }
      ],
      "name": "items",
      "outputs": [
        {
          "name": "sku",
          "type": "uint256"
        },
        {
          "name": "quantity",
          "type": "uint256"
        },
        {
          "name": "price",
          "type": "uint256"
        },
        {
          "name": "name",
          "type": "string"
        },
        {
          "name": "description",
          "type": "string"
        }
      ],
      "payable": false,
      "stateMutability": "view",
      "type": "function"
    },
    {
      "inputs": [
        {
          "name": "sender",
          "type": "address"
        },
        {
          "name": "storeName",
          "type": "string"
        },
        {
          "name": "storeDescription",
          "type": "string"
        }
      ],
      "payable": false,
      "stateMutability": "nonpayable",
      "type": "constructor"
    },
    {
      "payable": true,
      "stateMutability": "payable",
      "type": "fallback"
    },
    {
      "anonymous": false,
      "inputs": [
        {
          "indexed": false,
          "name": "name",
          "type": "string"
        },
        {
          "indexed": false,
          "name": "description",
          "type": "string"
        },
        {
          "indexed": true,
          "name": "sku",
          "type": "uint256"
        },
        {
          "indexed": false,
          "name": "price",
          "type": "uint256"
        }
      ],
      "name": "NewItemAdded",
      "type": "event"
    },
    {
      "anonymous": false,
      "inputs": [
        {
          "indexed": true,
          "name": "sku",
          "type": "uint256"
        },
        {
          "indexed": false,
          "name": "newStockQuantity",
          "type": "uint256"
        }
      ],
      "name": "StockQuantityUpdated",
      "type": "event"
    },
    {
      "anonymous": false,
      "inputs": [
        {
          "indexed": true,
          "name": "sku",
          "type": "uint256"
        },
        {
          "indexed": false,
          "name": "quantity",
          "type": "uint256"
        }
      ],
      "name": "PurchaseMade",
      "type": "event"
    },
    {
      "anonymous": false,
      "inputs": [
        {
          "indexed": false,
          "name": "circuitBreak",
          "type": "bool"
        }
      ],
      "name": "ContractStateToggled",
      "type": "event"
    },
    {
      "constant": false,
      "inputs": [],
      "name": "toggleContractActive",
      "outputs": [],
      "payable": false,
      "stateMutability": "nonpayable",
      "type": "function"
    },
    {
      "constant": false,
      "inputs": [],
      "name": "withdraw",
      "outputs": [],
      "payable": true,
      "stateMutability": "payable",
      "type": "function"
    },
    {
      "constant": false,
      "inputs": [
        {
          "name": "newItemName",
          "type": "string"
        },
        {
          "name": "newItemDescription",
          "type": "string"
        },
        {
          "name": "newItemPrice",
          "type": "uint256"
        }
      ],
      "name": "addNewItem",
      "outputs": [],
      "payable": false,
      "stateMutability": "nonpayable",
      "type": "function"
    },
    {
      "constant": false,
      "inputs": [
        {
          "name": "sku",
          "type": "uint256"
        },
        {
          "name": "newStockQuantity",
          "type": "uint256"
        }
      ],
      "name": "updateStockQuantity",
      "outputs": [],
      "payable": false,
      "stateMutability": "nonpayable",
      "type": "function"
    },
    {
      "constant": false,
      "inputs": [
        {
          "name": "sku",
          "type": "uint256"
        },
        {
          "name": "quantity",
          "type": "uint256"
        }
      ],
      "name": "purchaseItem",
      "outputs": [],
      "payable": true,
      "stateMutability": "payable",
      "type": "function"
    }
  ],
  "bytecode": "0x60806040526000600560006101000a81548160ff0219169083151502179055503480156200002c57600080fd5b506040516200176938038062001769833981018060405260608110156200005257600080fd5b810190808051906020019092919080516401000000008111156200007557600080fd5b828101905060208101848111156200008c57600080fd5b8151856001820283011164010000000082111715620000aa57600080fd5b50509291906020018051640100000000811115620000c757600080fd5b82810190506020810184811115620000de57600080fd5b8151856001820283011164010000000082111715620000fc57600080fd5b50509291905050508160208151111515156200011757600080fd5b8160208151111515156200012a57600080fd5b846000806101000a81548173ffffffffffffffffffffffffffffffffffffffff021916908373ffffffffffffffffffffffffffffffffffffffff160217905550836001908051906020019062000182929190620001af565b5082600290805190602001906200019b929190620001af565b50600060048190555050505050506200025e565b828054600181600116156101000203166002900490600052602060002090601f016020900481019282601f10620001f257805160ff191683800117855562000223565b8280016001018555821562000223579182015b828111156200022257825182559160200191906001019062000205565b5b50905062000232919062000236565b5090565b6200025b91905b80821115620002575760008160009055506001016200023d565b5090565b90565b6114fb806200026e6000396000f3fe6080604052600436106100af576000357c0100000000000000000000000000000000000000000000000000000000900463ffffffff16806306fdde03146100b15780630bc9b010146101415780631385d24c146101705780633ccfd60b14610187578063637fd295146101915780637284e416146102fa5780638da5cb5b1461038a57806392720ad4146103e1578063bfb231d21461040c578063e067569814610541578063e90b883614610579575b005b3480156100bd57600080fd5b506100c66105be565b6040518080602001828103825283818151815260200191508051906020019080838360005b838110156101065780820151818401526020810190506100eb565b50505050905090810190601f1680156101335780820380516001836020036101000a031916815260200191505b509250505060405180910390f35b34801561014d57600080fd5b5061015661065c565b604051808215151515815260200191505060405180910390f35b34801561017c57600080fd5b5061018561066f565b005b61018f6107cf565b005b34801561019d57600080fd5b506102f8600480360360608110156101b457600080fd5b81019080803590602001906401000000008111156101d157600080fd5b8201836020820111156101e357600080fd5b8035906020019184600183028401116401000000008311171561020557600080fd5b91908080601f016020809104026020016040519081016040528093929190818152602001838380828437600081840152601f19601f8201169050808301925050505050505091929192908035906020019064010000000081111561026857600080fd5b82018360208201111561027a57600080fd5b8035906020019184600183028401116401000000008311171561029c57600080fd5b91908080601f016020809104026020016040519081016040528093929190818152602001838380828437600081840152601f19601f8201169050808301925050505050505091929192908035906020019092919050505061093a565b005b34801561030657600080fd5b5061030f610c5a565b6040518080602001828103825283818151815260200191508051906020019080838360005b8381101561034f578082015181840152602081019050610334565b50505050905090810190601f16801561037c5780820380516001836020036101000a031916815260200191505b509250505060405180910390f35b34801561039657600080fd5b5061039f610cf8565b604051808273ffffffffffffffffffffffffffffffffffffffff1673ffffffffffffffffffffffffffffffffffffffff16815260200191505060405180910390f35b3480156103ed57600080fd5b506103f6610d1d565b6040518082815260200191505060405180910390f35b34801561041857600080fd5b506104456004803603602081101561042f57600080fd5b8101908080359060200190929190505050610d23565b604051808681526020018581526020018481526020018060200180602001838103835285818151815260200191508051906020019080838360005b8381101561049b578082015181840152602081019050610480565b50505050905090810190601f1680156104c85780820380516001836020036101000a031916815260200191505b50838103825284818151815260200191508051906020019080838360005b838110156105015780820151818401526020810190506104e6565b50505050905090810190601f16801561052e5780820380516001836020036101000a031916815260200191505b5097505050505050505060405180910390f35b6105776004803603604081101561055757600080fd5b810190808035906020019092919080359060200190929190505050610e89565b005b34801561058557600080fd5b506105bc6004803603604081101561059c57600080fd5b8101908080359060200190929190803590602001909291905050506111a9565b005b60018054600181600116156101000203166002900480601f0160208091040260200160405190810160405280929190818152602001828054600181600116156101000203166002900480156106545780601f1061062957610100808354040283529160200191610654565b820191906000526020600020905b81548152906001019060200180831161063757829003601f168201915b505050505081565b600560009054906101000a900460ff1681565b6000809054906101000a900473ffffffffffffffffffffffffffffffffffffffff1673ffffffffffffffffffffffffffffffffffffffff163373ffffffffffffffffffffffffffffffffffffffff16141515610759576040517f08c379a00000000000000000000000000000000000000000000000000000000081526004018080602001828103825260318152602001807f596f7520646f6e277420686176652074686520617574686f7269747920746f2081526020017f74616b65207468697320616374696f6e2e00000000000000000000000000000081525060400191505060405180910390fd5b600560009054906101000a900460ff1615600560006101000a81548160ff0219169083151502179055507fbbe2df23d8e4c62058ef6f54ed03e99b5f38d650d80f449e5c3dff7eb5fc3c90600560009054906101000a900460ff16604051808215151515815260200191505060405180910390a1565b6000809054906101000a900473ffffffffffffffffffffffffffffffffffffffff1673ffffffffffffffffffffffffffffffffffffffff163373ffffffffffffffffffffffffffffffffffffffff161415156108b9576040517f08c379a00000000000000000000000000000000000000000000000000000000081526004018080602001828103825260318152602001807f596f7520646f6e277420686176652074686520617574686f7269747920746f2081526020017f74616b65207468697320616374696f6e2e00000000000000000000000000000081525060400191505060405180910390fd5b6000809054906101000a900473ffffffffffffffffffffffffffffffffffffffff1673ffffffffffffffffffffffffffffffffffffffff166108fc3073ffffffffffffffffffffffffffffffffffffffff16319081150290604051600060405180830381858888f19350505050158015610937573d6000803e3d6000fd5b50565b6000809054906101000a900473ffffffffffffffffffffffffffffffffffffffff1673ffffffffffffffffffffffffffffffffffffffff163373ffffffffffffffffffffffffffffffffffffffff16141515610a24576040517f08c379a00000000000000000000000000000000000000000000000000000000081526004018080602001828103825260318152602001807f596f7520646f6e277420686176652074686520617574686f7269747920746f2081526020017f74616b65207468697320616374696f6e2e00000000000000000000000000000081525060400191505060405180910390fd5b826020815111151515610a3657600080fd5b826020815111151515610a4857600080fd5b610a506113fa565b60a060405190810160405280610a72600160045461137990919063ffffffff16565b8152602001600081526020018581526020018781526020018681525090508060036000610aab600160045461137990919063ffffffff16565b81526020019081526020016000206000820151816000015560208201518160010155604082015181600201556060820151816003019080519060200190610af392919061142a565b506080820151816004019080519060200190610b1092919061142a565b50905050610b2a600160045461137990919063ffffffff16565b60048190555080600001517faa3282e255682cfa98467c850726096145699c87f58583664c95fbb35673c83e826060015183608001518460400151604051808060200180602001848152602001838103835286818151815260200191508051906020019080838360005b83811015610baf578082015181840152602081019050610b94565b50505050905090810190601f168015610bdc5780820380516001836020036101000a031916815260200191505b50838103825285818151815260200191508051906020019080838360005b83811015610c15578082015181840152602081019050610bfa565b50505050905090810190601f168015610c425780820380516001836020036101000a031916815260200191505b509550505050505060405180910390a2505050505050565b60028054600181600116156101000203166002900480601f016020809104026020016040519081016040528092919081815260200182805460018160011615610100020316600290048015610cf05780601f10610cc557610100808354040283529160200191610cf0565b820191906000526020600020905b815481529060010190602001808311610cd357829003601f168201915b505050505081565b6000809054906101000a900473ffffffffffffffffffffffffffffffffffffffff1681565b60045481565b6003602052806000526040600020600091509050806000015490806001015490806002015490806003018054600181600116156101000203166002900480601f016020809104026020016040519081016040528092919081815260200182805460018160011615610100020316600290048015610de15780601f10610db657610100808354040283529160200191610de1565b820191906000526020600020905b815481529060010190602001808311610dc457829003601f168201915b505050505090806004018054600181600116156101000203166002900480601f016020809104026020016040519081016040528092919081815260200182805460018160011615610100020316600290048015610e7f5780601f10610e5457610100808354040283529160200191610e7f565b820191906000526020600020905b815481529060010190602001808311610e6257829003601f168201915b5050505050905085565b816000610ea18260045461139a90919063ffffffff16565b10151515610f17576040517f08c379a00000000000000000000000000000000000000000000000000000000081526004018080602001828103825260148152602001807f4974656d20646f6573206e6f742065786973742e00000000000000000000000081525060200191505060405180910390fd5b82826000610f4482600360008681526020019081526020016000206001015461139a90919063ffffffff16565b10151515610fba576040517f08c379a00000000000000000000000000000000000000000000000000000000081526004018080602001828103825260198152602001807f4e6f7420656e6f756768207175616e74697479206c6566742e0000000000000081525060200191505060405180910390fd5b8484610fe58160036000858152602001908152602001600020600201546113bc90919063ffffffff16565b341015151561105c576040517f08c379a000000000000000000000000000000000000000000000000000000000815260040180806020018281038252601c8152602001807f496e73756666696369656e742066756e64732070726f76696465642e0000000081525060200191505060405180910390fd5b600560009054906101000a900460ff1615156110ee5761109b86600360008a81526020019081526020016000206001015461139a90919063ffffffff16565b6003600089815260200190815260200160002060010181905550867f7a53680a44b794c8ef9f1d38676e09a22df8a9bae6949d9da9d275b78d8d74d6876040518082815260200191505060405180910390a25b6111178160036000858152602001908152602001600020600201546113bc90919063ffffffff16565b3411156111a0573373ffffffffffffffffffffffffffffffffffffffff166108fc6111736111648460036000888152602001908152602001600020600201546113bc90919063ffffffff16565b3461139a90919063ffffffff16565b9081150290604051600060405180830381858888f1935050505015801561119e573d6000803e3d6000fd5b505b50505050505050565b8160006111c18260045461139a90919063ffffffff16565b10151515611237576040517f08c379a00000000000000000000000000000000000000000000000000000000081526004018080602001828103825260148152602001807f4974656d20646f6573206e6f742065786973742e00000000000000000000000081525060200191505060405180910390fd5b6000809054906101000a900473ffffffffffffffffffffffffffffffffffffffff1673ffffffffffffffffffffffffffffffffffffffff163373ffffffffffffffffffffffffffffffffffffffff16141515611321576040517f08c379a00000000000000000000000000000000000000000000000000000000081526004018080602001828103825260318152602001807f596f7520646f6e277420686176652074686520617574686f7269747920746f2081526020017f74616b65207468697320616374696f6e2e00000000000000000000000000000081525060400191505060405180910390fd5b816003600085815260200190815260200160002060010181905550827f3756033c58fb5f6f661d145ef362ea4fde4824536ac22f80cfa914b72e12e746836040518082815260200191505060405180910390a2505050565b600080828401905083811015151561139057600080fd5b8091505092915050565b60008282111515156113ab57600080fd5b600082840390508091505092915050565b6000808314156113cf57600090506113f4565b600082840290508284828115156113e257fe5b041415156113ef57600080fd5b809150505b92915050565b60a06040519081016040528060008152602001600081526020016000815260200160608152602001606081525090565b828054600181600116156101000203166002900490600052602060002090601f016020900481019282601f1061146b57805160ff1916838001178555611499565b82800160010185558215611499579182015b8281111561149857825182559160200191906001019061147d565b5b5090506114a691906114aa565b5090565b6114cc91905b808211156114c85760008160009055506001016114b0565b5090565b9056fea165627a7a7230582002e50dc0b5e6100e3a21d376ca5b54a549fcfcfd7b5a59bb7dbc231848f3fb560029",
  "source": "pragma solidity ^0.5.0;\n\nimport \"openzeppelin-solidity/contracts/math/SafeMath.sol\";\n\n\n/**\n * @title Store\n * @dev This contract contains the required functions to manage the operations of the store.\n */\ncontract Store {\n  using SafeMath for uint;\n\n  address payable public owner;\n  string public name;\n  string public description;\n  mapping (uint => Item) public items;\n  uint public newestItemSku;\n  bool public circuitBreak = false;\n\n  /// @dev This struct called Item contains the properties of an item.\n  struct Item {\n    uint sku;\n    uint quantity;\n    uint price;\n    string name;\n    string description;\n  }\n  \n  /**\n     * All applicable events.\n     */\n  event NewItemAdded(string name, string description, uint indexed sku, uint price);\n  event StockQuantityUpdated(uint indexed sku, uint newStockQuantity);\n  event PurchaseMade(uint indexed sku, uint quantity);\n  event ContractStateToggled(bool circuitBreak);\n\n  /// @dev This modifier helps to revert a function if it is called by any account that is not the owner.\n  modifier isOwner() {\n    require(\n      msg.sender == owner,\n      \"You don't have the authority to take this action.\");\n    _;\n  }\n  \n   /// @dev This modifier helps to revert a function if the string length is more than 32 bytes.\n  modifier stringLengthOkay(string memory str) {\n    require(bytes(str).length <= 32);\n    _;\n  }\n\n   /// @dev This modifier helps to revert a function if the sku does not exist.\n  modifier skuExists(uint sku) {\n    require(\n      newestItemSku.sub(sku) >= 0,\n      \"Item does not exist.\");\n    _;\n  }\n  \n  /// @dev This modifier helps to revert a function if there isn't enough quantity of the sku.\n  modifier enoughQuantity(uint sku, uint quantity) {\n    require(\n      items[sku].quantity.sub(quantity) >= 0,\n      \"Not enough quantity left.\");\n    _;\n  }\n  \n  /// @dev This modifier helps to revert a function if there isn't enough funds sent.\n  modifier enoughFundsSent(uint sku, uint quantity) {\n      require(\n        msg.value >= items[sku].price.mul(quantity),\n        \"Insufficient funds provided.\");\n\n      _;\n\n      if (msg.value > items[sku].price.mul(quantity)) {\n        msg.sender.transfer(msg.value.sub(items[sku].price.mul(quantity)));\n      }\n  }\n\n  modifier applyCircuitBreak {\n    if (!circuitBreak) {\n      _;\n    }\n  }\n\n\n  constructor(address payable sender, string memory storeName, string memory storeDescription) \n    public\n    stringLengthOkay(storeName)\n    stringLengthOkay(storeDescription) \n    {\n    owner = sender;\n    name = storeName;\n    description = storeDescription;\n    newestItemSku = 0;\n  }\n\n  /** @dev Owner can toggle contract in case of emergency.\n    */\n  function toggleContractActive() \n    public\n    isOwner {\n      circuitBreak = !circuitBreak;\n      emit ContractStateToggled(circuitBreak);\n  }\n\n  /** @dev Owner can withdraw any funds the store has earned by selling items.\n    */\n  function withdraw() public payable isOwner {\n    owner.transfer(address(this).balance);\n  }\n\n  /** @dev Owner can add items to his/her store to sell.\n    * @param newItemName The name of the item.\n    * @param newItemDescription The description of the item.\n    * @param newItemPrice The price of the item.\n    */\n  function addNewItem(string memory newItemName, string memory newItemDescription, uint newItemPrice) \n    public\n    isOwner\n    stringLengthOkay(newItemName)\n    stringLengthOkay(newItemDescription) \n    {\n    Item memory newItem = Item({\n      sku: newestItemSku.add(1), \n      quantity: 0, \n      price: newItemPrice,\n      name: newItemName, \n      description: newItemDescription\n    });\n\n    items[newestItemSku.add(1)] = newItem;\n    newestItemSku = newestItemSku.add(1);\n    emit NewItemAdded(newItem.name, newItem.description, newItem.sku, newItem.price);\n  }\n\n  /** @dev Owner can update the quantity for a given item.\n    * @param sku The sku of the item.\n    * @param newStockQuantity The updated quantity count of the item.\n    */\n  function updateStockQuantity(uint sku, uint newStockQuantity) \n    public\n    skuExists(sku) \n    isOwner {\n\n    items[sku].quantity = newStockQuantity;\n    emit StockQuantityUpdated(sku, newStockQuantity);\n  }\n\n  /** @dev Shoppers call this to purchase a given item from the store.\n    * @param sku The sku of the item.\n    * @param quantity The number of quantity of the item the user is buying.\n    */\n  function purchaseItem(uint sku, uint quantity) \n    public \n    payable\n    skuExists(sku)\n    enoughQuantity(sku, quantity)\n    enoughFundsSent(sku, quantity)\n    applyCircuitBreak {\n\n    items[sku].quantity = items[sku].quantity.sub(quantity);\n    emit PurchaseMade(sku, quantity);\n  }\n  /** @dev Default payable function.\n    */\n  function ()external payable {}\n}",
  "sourcePath": "/home/naman/Documents/bazaar_final_project/contracts/Store.sol",
  "compiler": {
    "name": "solc",
    "version": "0.5.0+commit.1d4f565a.Emscripten.clang"
  },
  "schemaVersion": "3.0.1",
  "updatedAt": "2019-01-28T06:11:56.917Z",
  "devdoc": {
    "details": "This contract contains the required functions to manage the operations of the store.",
    "methods": {
      "addNewItem(string,string,uint256)": {
        "details": "Owner can add items to his/her store to sell.",
        "params": {
          "newItemDescription": "The description of the item.",
          "newItemName": "The name of the item.",
          "newItemPrice": "The price of the item."
        }
      },
      "purchaseItem(uint256,uint256)": {
        "details": "Shoppers call this to purchase a given item from the store.",
        "params": {
          "quantity": "The number of quantity of the item the user is buying.",
          "sku": "The sku of the item."
        }
      },
      "toggleContractActive()": {
        "details": "Owner can toggle contract in case of emergency."
      },
      "updateStockQuantity(uint256,uint256)": {
        "details": "Owner can update the quantity for a given item.",
        "params": {
          "newStockQuantity": "The updated quantity count of the item.",
          "sku": "The sku of the item."
        }
      },
      "withdraw()": {
        "details": "Owner can withdraw any funds the store has earned by selling items."
      }
    },
    "title": "Store"
  },
  "userdoc": {
    "methods": {}
  }
}